:020000020000FC
:0200000033C00B
:04002C000C945500DB
:10006800259A0FEF0DBF08E00EBF08E60093890040
:1000780009E20093880000E00093800009E0009303
:10008800810002E000936F0078940CE30093C007AE
:1000980088950091C20707FDFBCF00680093C2074F
:1000A800F7CF0F930FB70F930091C2070F77039500
:1000B8000A3008F40FC00091C107002319F00A950F
:1000C8000093C1070091C007002319F00A95009317
:1000D800C00700270093C2070F910FBF0F91189513
:1000E80000001200000000000000000000000000F6
:1000F80000000000000000000000000000000000F8
:1001080000000000000000000000000000000000E7
:1001180000000000000000000000000000000000D7
:1001280000000000000000000000000000000000C7
:1001380000000000000000000000000000000000B7
:1001480000000000000000000000000000000000A7
:100158000000000000000000000000000000000097
:100168000000000000000000000000000000000087
:100178000000000000000000000000000000000077
:100188000000000000000000000000000000000067
:100198000000000000000000000000000000000057
:1001A8000000000000000000000000000000000047
:1001B8000000000000000000000000000000000037
:1001C8000000000000000000000000000000000027
:1001D8000000000000000000000000000000000017
:00000001FF
