:020000020000FC
:0200000033C00B
:04002C000C945200DE
:10006800259A0FEF0DBF08E00EBF08E60093890040
:1000780009E20093880000E00093800001E000930B
:10008800810002E000936F00789488950091C20780
:1000980007FFFBCF00E80093C207F7CF0F930FB716
:1000A8000F930091C2070F7E03950A3008F410C021
:1000B8000091C107002319F00A950093C107009128
:1000C800C007002319F00A950093C0071D9A00275E
:0C00D8000093C2070F910FBF0F91189505
:00000001FF
